{
  "contractName": "Service",
  "abi": [
    {
      "inputs": [
        {
          "internalType": "address",
          "name": "_oracle",
          "type": "address"
        }
      ],
      "payable": false,
      "stateMutability": "nonpayable",
      "type": "constructor"
    },
    {
      "anonymous": false,
      "inputs": [
        {
          "indexed": false,
          "internalType": "string",
          "name": "domain",
          "type": "string"
        }
      ],
      "name": "LookupRecord",
      "type": "event"
    },
    {
      "constant": true,
      "inputs": [],
      "name": "oracle",
      "outputs": [
        {
          "internalType": "address",
          "name": "",
          "type": "address"
        }
      ],
      "payable": false,
      "stateMutability": "view",
      "type": "function"
    },
    {
      "constant": true,
      "inputs": [
        {
          "internalType": "string",
          "name": "",
          "type": "string"
        }
      ],
      "name": "records",
      "outputs": [
        {
          "internalType": "bytes",
          "name": "exponent",
          "type": "bytes"
        },
        {
          "internalType": "bytes",
          "name": "modulus",
          "type": "bytes"
        }
      ],
      "payable": false,
      "stateMutability": "view",
      "type": "function"
    },
    {
      "constant": false,
      "inputs": [
        {
          "internalType": "string",
          "name": "domain",
          "type": "string"
        },
        {
          "internalType": "bytes",
          "name": "exponent",
          "type": "bytes"
        },
        {
          "internalType": "bytes",
          "name": "modulus",
          "type": "bytes"
        }
      ],
      "name": "setRecord",
      "outputs": [],
      "payable": false,
      "stateMutability": "nonpayable",
      "type": "function"
    },
    {
      "constant": false,
      "inputs": [
        {
          "internalType": "string",
          "name": "domain",
          "type": "string"
        }
      ],
      "name": "removeRecord",
      "outputs": [],
      "payable": false,
      "stateMutability": "nonpayable",
      "type": "function"
    },
    {
      "constant": false,
      "inputs": [
        {
          "internalType": "string",
          "name": "domain",
          "type": "string"
        }
      ],
      "name": "lookupRecord",
      "outputs": [],
      "payable": false,
      "stateMutability": "nonpayable",
      "type": "function"
    },
    {
      "constant": true,
      "inputs": [
        {
          "internalType": "enum DKIM.Algorithms",
          "name": "algorithm",
          "type": "uint8"
        },
        {
          "internalType": "bytes32",
          "name": "hash",
          "type": "bytes32"
        },
        {
          "internalType": "bytes",
          "name": "signature",
          "type": "bytes"
        },
        {
          "internalType": "bytes",
          "name": "exponent",
          "type": "bytes"
        },
        {
          "internalType": "bytes",
          "name": "modulus",
          "type": "bytes"
        }
      ],
      "name": "verifySelf",
      "outputs": [
        {
          "internalType": "bool",
          "name": "",
          "type": "bool"
        }
      ],
      "payable": false,
      "stateMutability": "view",
      "type": "function"
    },
    {
      "constant": true,
      "inputs": [
        {
          "internalType": "enum DKIM.Algorithms",
          "name": "algorithm",
          "type": "uint8"
        },
        {
          "internalType": "bytes32",
          "name": "hash",
          "type": "bytes32"
        },
        {
          "internalType": "bytes",
          "name": "signature",
          "type": "bytes"
        },
        {
          "internalType": "bytes",
          "name": "exponent",
          "type": "bytes"
        },
        {
          "internalType": "bytes",
          "name": "modulus",
          "type": "bytes"
        }
      ],
      "name": "verify",
      "outputs": [
        {
          "internalType": "bool",
          "name": "",
          "type": "bool"
        }
      ],
      "payable": false,
      "stateMutability": "view",
      "type": "function"
    },
    {
      "constant": true,
      "inputs": [
        {
          "internalType": "enum DKIM.Algorithms",
          "name": "algorithm",
          "type": "uint8"
        },
        {
          "internalType": "bytes32",
          "name": "hash",
          "type": "bytes32"
        },
        {
          "internalType": "bytes",
          "name": "signature",
          "type": "bytes"
        },
        {
          "internalType": "string",
          "name": "domain",
          "type": "string"
        }
      ],
      "name": "verify",
      "outputs": [
        {
          "internalType": "bool",
          "name": "",
          "type": "bool"
        }
      ],
      "payable": false,
      "stateMutability": "view",
      "type": "function"
    }
  ],
  "bytecode": "0x608060405234801561001057600080fd5b506040516110b53803806110b58339818101604052602081101561003357600080fd5b5051600080546001600160a01b039092166001600160a01b0319909216919091179055611050806100656000396000f3fe608060405234801561001057600080fd5b50600436106100885760003560e01c80637dc0d1d01161005b5780637dc0d1d0146104be5780638fb124fa146104e257806391e0b9301461008d578063eefa2d501461055057610088565b806314793e901461008d57806316d894c6146101be57806327d69d68146102ce578063541e771d1461033c575b600080fd5b6101aa600480360360a08110156100a357600080fd5b60ff82351691602081013591810190606081016040820135600160201b8111156100cc57600080fd5b8201836020820111156100de57600080fd5b803590602001918460018302840111600160201b831117156100ff57600080fd5b919390929091602081019035600160201b81111561011c57600080fd5b82018360208201111561012e57600080fd5b803590602001918460018302840111600160201b8311171561014f57600080fd5b919390929091602081019035600160201b81111561016c57600080fd5b82018360208201111561017e57600080fd5b803590602001918460018302840111600160201b8311171561019f57600080fd5b50909250905061061d565b604080519115158252519081900360200190f35b6102cc600480360360608110156101d457600080fd5b810190602081018135600160201b8111156101ee57600080fd5b82018360208201111561020057600080fd5b803590602001918460018302840111600160201b8311171561022157600080fd5b919390929091602081019035600160201b81111561023e57600080fd5b82018360208201111561025057600080fd5b803590602001918460018302840111600160201b8311171561027157600080fd5b919390929091602081019035600160201b81111561028e57600080fd5b8201836020820111156102a057600080fd5b803590602001918460018302840111600160201b831117156102c157600080fd5b5090925090506106d5565b005b6102cc600480360360208110156102e457600080fd5b810190602081018135600160201b8111156102fe57600080fd5b82018360208201111561031057600080fd5b803590602001918460018302840111600160201b8311171561033157600080fd5b5090925090506107f6565b6103e06004803603602081101561035257600080fd5b810190602081018135600160201b81111561036c57600080fd5b82018360208201111561037e57600080fd5b803590602001918460018302840111600160201b8311171561039f57600080fd5b91908080601f01602080910402602001604051908101604052809392919081815260200183838082843760009201919091525092955061085a945050505050565b604051808060200180602001838103835285818151815260200191508051906020019080838360005b83811015610421578181015183820152602001610409565b50505050905090810190601f16801561044e5780820380516001836020036101000a031916815260200191505b50838103825284518152845160209182019186019080838360005b83811015610481578181015183820152602001610469565b50505050905090810190601f1680156104ae5780820380516001836020036101000a031916815260200191505b5094505050505060405180910390f35b6104c66109a1565b604080516001600160a01b039092168252519081900360200190f35b6102cc600480360360208110156104f857600080fd5b810190602081018135600160201b81111561051257600080fd5b82018360208201111561052457600080fd5b803590602001918460018302840111600160201b8311171561054557600080fd5b5090925090506109b0565b6101aa6004803603608081101561056657600080fd5b60ff82351691602081013591810190606081016040820135600160201b81111561058f57600080fd5b8201836020820111156105a157600080fd5b803590602001918460018302840111600160201b831117156105c257600080fd5b919390929091602081019035600160201b8111156105df57600080fd5b8201836020820111156105f157600080fd5b803590602001918460018302840111600160201b8311171561061257600080fd5b509092509050610a41565b60006106c8898989898080601f01602080910402602001604051908101604052809392919081815260200183838082843760009201919091525050604080516020601f8d018190048102820181019092528b815292508b91508a908190840183828082843760009201919091525050604080516020601f8c018190048102820181019092528a815292508a9150899081908401838280828437600092019190915250610c4e92505050565b9998505050505050505050565b6000546001600160a01b0316331461071e5760405162461bcd60e51b815260040180806020018281038252602f815260200180610fed602f913960400191505060405180910390fd5b6040805160606020601f87018190040282018101835291810185815290918291908790879081908501838280828437600092019190915250505090825250604080516020601f86018190048102820181019092528481529181019190859085908190840183828082843760009201919091525050509152506040516001908890889080838380828437919091019485525050604051602093819003840190208451805191946107d294508593500190610ee8565b5060208281015180516107eb9260018501920190610ee8565b505050505050505050565b7f1ad0922a4e05d550593295d0e09eb5afb19234fbec036f74da920b05820a1f4f828260405180806020018281038252848482818152602001925080828437600083820152604051601f909101601f19169092018290039550909350505050a15050565b8051602081830181018051600180835293830194830194909420939052825460408051600294831615610100026000190190921693909304601f81018390048302820183019093528281529183918301828280156108f95780601f106108ce576101008083540402835291602001916108f9565b820191906000526020600020905b8154815290600101906020018083116108dc57829003601f168201915b505050505090806001018054600181600116156101000203166002900480601f0160208091040260200160405190810160405280929190818152602001828054600181600116156101000203166002900480156109975780601f1061096c57610100808354040283529160200191610997565b820191906000526020600020905b81548152906001019060200180831161097a57829003601f168201915b5050505050905082565b6000546001600160a01b031681565b6000546001600160a01b031633146109f95760405162461bcd60e51b815260040180806020018281038252602f815260200180610fed602f913960400191505060405180910390fd5b600182826040518083838082843791909101948552505060405192839003602001909220915060009050610a2d8282610f66565b610a3b600183016000610f66565b50505050565b600080600184846040518083838082843780830192505050925050509081526020016040518091039020905060008160010180546001816001161561010002031660029004905011610ada576040805162461bcd60e51b815260206004820152601c60248201527f646f6d61696e207265636f726420646f6573206e6f7420657869737400000000604482015290519081900360640190fd5b610c42888888888080601f01602080910402602001604051908101604052809392919081815260200183838082843760009201919091525050865460408051602060026000196101006001871615020190941693909304601f8101849004840282018401909252818152935088925090830182828015610b9b5780601f10610b7057610100808354040283529160200191610b9b565b820191906000526020600020905b815481529060010190602001808311610b7e57829003601f168201915b5050505050856001018054600181600116156101000203166002900480601f016020809104026020016040519081016040528092919081815260200182805460018160011615610100020316600290048015610c385780601f10610c0d57610100808354040283529160200191610c38565b820191906000526020600020905b815481529060010190602001808311610c1b57829003601f168201915b5050505050610c4e565b98975050505050505050565b600080866001811115610c5d57fe5b1415610e1d5773__RSASHA1_______________________________63c658da51868686866040518563ffffffff1660e01b815260040180858152602001806020018060200180602001848103845287818151815260200191508051906020019080838360005b83811015610cdb578181015183820152602001610cc3565b50505050905090810190601f168015610d085780820380516001836020036101000a031916815260200191505b50848103835286518152865160209182019188019080838360005b83811015610d3b578181015183820152602001610d23565b50505050905090810190601f168015610d685780820380516001836020036101000a031916815260200191505b50848103825285518152855160209182019187019080838360005b83811015610d9b578181015183820152602001610d83565b50505050905090810190601f168015610dc85780820380516001836020036101000a031916815260200191505b5097505050505050505060206040518083038186803b158015610dea57600080fd5b505af4158015610dfe573d6000803e3d6000fd5b505050506040513d6020811015610e1457600080fd5b50519050610edf565b6001866001811115610e2b57fe5b1415610ea85773__RSASHA256_____________________________63c658da51868686866040518563ffffffff1660e01b8152600401808581526020018060200180602001806020018481038452878181518152602001915080519060200190808383600083811015610cdb578181015183820152602001610cc3565b60405162461bcd60e51b8152600401808060200182810382526022815260200180610fcb6022913960400191505060405180910390fd5b95945050505050565b828054600181600116156101000203166002900490600052602060002090601f016020900481019282601f10610f2957805160ff1916838001178555610f56565b82800160010185558215610f56579182015b82811115610f56578251825591602001919060010190610f3b565b50610f62929150610fad565b5090565b50805460018160011615610100020316600290046000825580601f10610f8c5750610faa565b601f016020900490600052602060002090810190610faa9190610fad565b50565b610fc791905b80821115610f625760008155600101610fb3565b9056fe7369676e696e6720616c676f726974686d206973206e6f7420737570706f727465646f6e6c7920746865206f7261636c6520697320616c6c6f77656420746f2075736520746869732066756e6374696f6ea265627a7a72315820582ef3d999c800bd19a47e5fe591c1721f0fac3b9455580ec92c1cee905375c864736f6c63430005100032",
  "source": "pragma solidity ^0.5.8;\n\nimport \"./DKIM.sol\";\n\ncontract Service is DKIM {\n  struct Record {\n    bytes exponent;\n    bytes modulus;\n  }\n\n  address public oracle;\n  mapping (string => Record) public records;\n\n  modifier onlyOracle() {\n    require(msg.sender == oracle, \"only the oracle is allowed to use this function\");\n    _;\n  }\n\n  event LookupRecord(\n    string domain\n  );\n\n  constructor(address _oracle) public {\n    oracle = _oracle;\n  }\n\n  function setRecord(\n    string calldata domain,\n    bytes calldata exponent,\n    bytes calldata modulus\n  ) external onlyOracle {\n    records[domain] = Record(\n      exponent,\n      modulus\n    );\n  }\n\n  function removeRecord(\n    string calldata domain\n  ) external onlyOracle {\n    delete records[domain];\n  }\n\n  function lookupRecord(\n    string calldata domain\n  ) external {\n    emit LookupRecord(domain);\n  }\n\n  function verifySelf(\n    Algorithms algorithm,\n    bytes32 hash,\n    bytes calldata signature,\n    bytes calldata exponent,\n    bytes calldata modulus\n  ) external view returns (bool) {\n    return _verify(\n      algorithm,\n      hash,\n      signature,\n      exponent,\n      modulus\n    );\n  }\n\n  function verify(\n    Algorithms algorithm,\n    bytes32 hash,\n    bytes calldata signature,\n    string calldata domain\n  ) external view returns (bool) {\n    Record storage record = records[domain];\n    require(record.modulus.length > 0, \"domain record does not exist\");\n\n    return _verify(\n      algorithm,\n      hash,\n      signature,\n      record.exponent,\n      record.modulus\n    );\n  }\n}",
  "sourcePath": "/home/estojnovsky/Dev/Ambire/dkmi/solidity-dkim/contracts/Service.sol",
  "compiler": {
    "name": "solc",
    "version": "0.5.16+commit.9c3226ce.Emscripten.clang"
  },
  "schemaVersion": "3.4.3",
  "updatedAt": "2023-03-29T15:40:14.150Z",
  "networkType": "ethereum",
  "devdoc": {
    "methods": {}
  },
  "userdoc": {
    "methods": {}
  }
}